:020000040000FA
:10000000600F2020A5010000A9010000AB01000045
:1000100000000000000000000000000000000000E0
:10002000000000000000000000000000AD01000022
:100030000000000000000000AF010000B10100005E
:10004000B3010000CD1B0000B3010000B3010000AC
:10005000B3010000B3010000B3010000B3010000D0
:1000600000000000B3010000B30100000000000028
:1000700000000000B3010000B30100006D3C00006F
:10008000B3010000B3010000B3010000AD3A00006D
:10009000B3010000B30100000000000000000000F8
:1000A000B3010000B30100000000000000000000E8
:1000B000B301000000000000B3010000B301000024
:1000C00000F002F800F042F812A030C808382418F6
:1000D0002D18AC4201D100F039F80FCCA246AB4646
:1000E0000CA730CF2D1B083F3F197C427F1E544484
:1000F0002D090426F441641EAC4201D300F026F819
:100100000126334200D0FB1A3343984754465D46DC
:10011000DFE700000C5400002C5400000000000039
:100120007047000000000000002300240025002686
:10013000103A01D378C1FBD8520700D330C100D5A3
:100140000B6070471FB51FBD10B510BD01F0BAF9A7
:100150001146FFF7F7FF03F0A5FD01F0D2F903B454
:10016000FFF7F2FF03BC01F02DFA000070B5054661
:100170000C46164602E00FCC0FC5103E102EFAD2E8
:10018000082E02D303CC03C5083E042E07D301CCAE
:1001900001C5361F03E021782970641C6D1C761E92
:1001A000F9D270BD06480047FEE7FEE7FEE7FEE72E
:1001B000FEE7FEE703480449044A054B7047000088
:1001C000C100000060092020600F2020600B20206B
:1001D000600B2020F8B5042A2CD3830712D00B78AB
:1001E000491C0370401C521E83070BD00B78491C1E
:1001F0000370401C521E830704D00B78491C037007
:10020000401C521E8B079B0F05D0C91ADF0020230C
:10021000DE1B08C90AE0FFF7A9FFF8BD1D4608C9A3
:10022000FD401C46B4402C4310C0121F042AF5D2D6
:10023000F308C91A521EF0D40B78491C0370401CF5
:10024000521EEAD40B78491C0370401C012AE4D4E6
:1002500009780170F8BD0000002203098B4273D3B6
:10026000030A8B4258D3030B8B423CD3030C8B42C3
:1002700021D312E003460B437FD4002243088B4274
:1002800074D303098B425FD3030A8B4244D3030B1D
:100290008B4228D3030C8B420DD30902FF2212BAE2
:1002A000030C8B4202D31212090265D0030B8B425E
:1002B00019D300E0090AC30B8B4201D3CB03C01A48
:1002C0005241830B8B4201D38B03C01A5241430B23
:1002D0008B4201D34B03C01A5241030B8B4201D313
:1002E0000B03C01A5241C30A8B4201D3CB02C01A7E
:1002F0005241830A8B4201D38B02C01A5241430AF6
:100300008B4201D34B02C01A5241030A8B4201D3E4
:100310000B02C01A5241CDD2C3098B4201D3CB018B
:10032000C01A524183098B4201D38B01C01A52413A
:1003300043098B4201D34B01C01A524103098B423E
:1003400001D30B01C01A5241C3088B4201D3CB0029
:10035000C01A524183088B4201D38B00C01A52410C
:1003600043088B4201D34B00C01A5241411A00D2BC
:1003700001465241104670475DE0CA0F00D0494225
:10038000031000D3404253409C46002203098B4295
:100390002DD3030A8B4212D38901FC2212BA030A1D
:1003A0008B420CD3890192118B4208D3890192119F
:1003B0008B4204D389013AD0921100E08909C30924
:1003C0008B4201D3CB01C01A524183098B4201D326
:1003D0008B01C01A524143098B4201D34B01C01A11
:1003E000524103098B4201D30B01C01A5241C30889
:1003F0008B4201D3CB00C01A524183088B4201D3F8
:100400008B00C01A5241D9D243088B4201D34B0012
:10041000C01A5241411A00D2014652411046634669
:100420005B1001D34042002B00D549427047634620
:100430005B1000D3404201B50449002802DC491C8E
:10044000084000E00846C046C04602BDFFFFFF7FEF
:1004500070477047704700000246C80FC0078143CD
:100460004B0030B54B405B009B0D20D01923DB06C1
:10047000C91801231B05994220DB0324A407042586
:100480001346AB400BD3002B04D1EB0613409B006B
:10049000E34204D401246407002312195941FF23C5
:1004A0001B0599420BD2C9000143500F09E0CB0252
:1004B00004D501430803024305D0054830BDFF21A0
:1004C000C905084330BD084607210905884330BDEA
:1004D0000000C07FF0B50C46871A9C410D46861A75
:1004E0009D4103D2C01BA141D21963410D0D1F0DC7
:1004F000C94EEC1BAE435CD07F057F0D0026002F5C
:1005000051D02D05AC46A943DD020123ED0A1B05A0
:100510001D4320231B1B24D41746E7403818714184
:100520002F46E740CC199D402818314661410C0DFB
:1005300027D161449A4013D50023401C59415200F1
:100540000ED14008400001224B005205D34207D390
:1005500005204007C14201D5B04900E0B04930460E
:10056000F0BD6B00002A00D001229A181F23203C06
:100570001B1B01D5002302E0E540281871410C0D3A
:10058000D7D0012424050919C407CD07400849081C
:10059000E40F28436144002CD5D00024401C614165
:1005A0009A40D0D1CDE76A05520DD9D1C90FC907FC
:1005B000D5E79C4D4E00002801D0012400E0002426
:1005C00034195F00002A01D0012600E00026BE1980
:1005D000954FAC420CD8AE420AD8B44206D00125A1
:1005E0006D05EC42BCD010461946F0BD9942FCD0D6
:1005F00000203946F0BDF0B51FB40C460F46811AF5
:100600009F412546861A9D4106D20125ED076F4080
:10061000401ABC4152187B41210D1E0D8D1BAC466A
:100620007D4D8D437ED075056D0D7CD00D05AE469C
:10063000AC431B031B0B794D52429D412023664660
:100640009B1B14D31746F7403818002600907441BE
:1006500060462F460741E41900989D4028186641DE
:1006600016D4714671189A4025D5012320E09318BD
:100670002A466A415200002B00D0521C1E23203E05
:100680009B1B002B61DD3541EE1728186641E8D52C
:10069000001876415B1C9A4000D3401C4B05F318B0
:1006A0001524E34010D3002B52D071467118D30F9C
:1006B000C01802D3491C05B0F0BD0123DB079A42E4
:1006C000F9D140084000F6E701225205B21801D1E5
:1006D000002853D00123CC0ADB029943891E002A4B
:1006E00008D1020C03D0020C0004103902E00246CB
:1006F000002020390023550B05D112020823550B89
:1007000001D152010D23550C01D112011B1DD50C35
:1007100001D192009B1C150D01D152005B1C2025BC
:10072000EE1A01E02CE022E00546F5401543984022
:10073000CA1AE10769181305C918002ABBDA032091
:1007400040070818C10FC9070FE071466118B2E7EA
:10075000F10740080843711071444A000CD001238E
:100760005B059A42A7D2C90FC9070020A3E7490534
:10077000490D26D1002001E00028F4D100219AE79C
:10078000284D6600002801D0012100E000217118E9
:100790005F00002A01D0012600E00026BE19224F8A
:1007A000A94210D8AE420ED8B14208D001256D053D
:1007B000E94206D01946A802414010467BE79C4218
:1007C00001D0214677E70020394674E710B50C4682
:1007D0005C4005D50124E4076340FFF70CFF10BD22
:1007E000FFF778FE10BD30B40C465C4004D5012400
:1007F000E407634030BC6DE630BCFCE670B5012414
:10080000E40761400D465D4002D4FFF763FE70BD12
:100810006340FFF7F0FE70BDFF0700000000F0FF2F
:100820000000F07F0000E0FF0000F87FF0B5F94D18
:100830000C091E092C402E402F468BB0A7437DD0BB
:10084000B543FCD0002E7AD0002CFCD00D465D4084
:10085000ED0F2543AC1BFF25AD0464190894C502B8
:10086000440DC9022143500DDC0204430120C0079E
:1008700001430443D2020191200C110C00958C46D7
:10088000010423468B430A9161460904E24D8A43E1
:100890000991010A7D4449198039097805464D437B
:1008A00001266D18F605751B6943C90C640B891C7C
:1008B0004C436418B5012C1B250C2E04B4434C4347
:1008C0004D43210C691889090591009DE90701D064
:1008D0000121C90704912C4601996708CD072F43D0
:1008E0004C08059DE10B4D432D0C2946664675438A
:1008F00002950D4645432E46029D7D1BB441009551
:100900000D465D4301942C0C2F040D465543AE4615
:100910002D0C3D43029503947546049C2D04641BE5
:10092000049406D2029C039D641C00267541039525
:10093000029401AC70CC009F7D1B01E03EE162E1BE
:10094000B44109040095079101940599A4086143F5
:10095000090C0C464443650BE7040C466646744399
:10096000A646640B3C43039502947446049DE4043C
:100970002C1B049406D2029C039D641C0026754126
:100980000395029401AC70CC009F7D1BB44101948F
:100990000C465C430095650FE7000C465443A646A1
:1009A000640F3C43039502947446049DE4002C1BA1
:1009B000049406D2029C039D641C00267541039595
:1009C000029401AC70CC009F7D1BB441AE09AF0610
:1009D000049DC900AD092F43049DA406AD060495EE
:1009E000079D344369180791059DE10B4D432D0C7C
:1009F00029466646754302950D4645432E46029D9F
:100A00007D1BB44100950D465D4301942C0C2F04D1
:100A10000D465543AE462D0C3D4302950394754655
:100A2000049C2D04641B049406D2029C039D641C48
:100A3000002675410395029401AC70CC009F7D1B8C
:100A4000B44101948C050694079C890A61180095AD
:100A50000791019C0599A4086143090C0D46454383
:100A6000680BEF040D46644665436C0B3C43049FE2
:100A7000ED047D1BAC4602D20025641C6841009E3B
:100A8000019D371B85410846584301950C46460F8A
:100A9000C5005443600F28436546E4002C1B02D276
:100AA0000025401C6E41019D3F1AB5412846BD09F5
:100AB000800628438446A009BF064E020699A40674
:100AC00076180743079D002068410A99079019434B
:100AD0000020099B00906046FF1913434041E20F3C
:100AE00064003A43A4460446D71A8C41A04203D975
:100AF0000120009020463A46C70F941840416246B4
:100B0000D20F2243644664000494009CBE466400F5
:100B1000D71AA446044602978C417746002F01D18C
:100B2000A04204D96046401C8446029A2046C40F65
:100B3000A64694184041049A0546D20F22436446C3
:100B40006400D31A8D417146002901D1A84202D90F
:100B500028461A46641C10430122002800D0164380
:100B600061020020079B891904465C410223002C86
:100B700002DB491813466441089DCE0A2D145D1905
:100B80004B056705E10A2C050D1908993E43C90775
:100B90006940002B08D0934006D30022761C5141B7
:100BA000002B01D1760876001C4A002D43DB15424C
:100BB00041D0AA433FD030460BB0F0BD06180D46D9
:100BC0004D41174C7642AC411AD395181C465C41F6
:100BD000134A6D42A24113D3012252054C00D44264
:100BE0000AD15C00D4420BD04B4002D59202114393
:100BF000E2E749004908DFE75940C90FC90718E093
:100C000000200849D8E7054801420DD10342F7D03A
:100C1000F2E700000000FF07004500000000F07F41
:100C20000000E0FF0000F87F114859400143C01266
:100C300041400020C0E70123089A9B069A4205DC48
:100C4000032252078918C90FC907B5E705225207C1
:100C50008918074A1143D2125140ADE770B51546C5
:100C60001C4602460B4628462146FFF7DFFD70BDB5
:100C7000FFFFFF7F0346CA02400D10B510430A155F
:100C800004D00124E4072043002A05DB0A4CA21A01
:100C900004D4D040FF2A00DD002010BD4A00002B04
:100CA00001D0012000E00020101801225205D0429E
:100CB000F2D8C817C04310BD1E0400001F22030C49
:100CC00002D10F22000402D0030E03D004E0002062
:100CD000014670470002083A030F01D10001121FBC
:100CE000830F01D18000921E002801DB4000521EBC
:100CF000120551184205C012411810467047C10F25
:100D0000C90700D04042012292071143D6E70121D2
:100D10008907D3E7F0B58B4C0F09254689B0BD4351
:100D20007BD01D092646AE43FAD00E465E402740D2
:100D3000F60F3E43254071D024012142FBD0FF2411
:100D4000AD19A4042D1B039501252D05DB02DB0A3B
:100D5000C9022B43C90A29431E010901040F130FBD
:100D6000050121431701880B820391432D098C460D
:100D7000A90B1E438A039543B30B9A0396433F097D
:100D8000BA0B9403A74302962E467E430497B646B9
:100D90004E19D7190C460196544305977E43371BCD
:100DA0007646BF1B3601B646BE0B36190096764610
:100DB000BC043719009C01D3641C00946400002F0C
:100DC00001D001263443029E049F754366467E434C
:100DD0000496760034196E0034190094029C019E2A
:100DE0001C196643751BAE46069465464519059C5D
:100DF00005956C43594375460891691A0191049E03
:100E000001465143A41B0491611A009C0791E1061D
:100E100005D061090122114302E072E06EE0610930
:100E2000089D00272C0A2D066918049D7C412A0A7A
:100E30002D066918019D6241AC0DAD026D1854413B
:100E4000079A910D920255196141029A64465843DE
:100E50005443069B059A5A43121A131B9A0E9B0180
:100E60005B187A41010B0005C3185141220A200684
:100E700044195A419A4200D2491C01204002814241
:100E800003D315230226F64302E014230326F64378
:100E90002020C51AA9401746AF40DA400A43204631
:100EA0000399D8400914731819055118039A384347
:100EB000D2075140AC4009D00122944006D3002211
:100EC000401C5141002C01D1400840001E4A934271
:100ED00012D3012203989206904207DB05204007B7
:100EE00009181A480143C012414004E0032040079A
:100EF0000818C10FC907002009B0F0BD0020F10794
:100F0000FAE705180C464C4111486D42A04115D333
:100F100094181A465A410E48644290410ED301205B
:100F20004A004005824209D35A00824206D3594002
:100F3000C90F084AC90700201143DDE70020064910
:100F4000DAE700000000FF07FE070000FFFFFF7F59
:100F50000000E0FF0000F07F0000F87F0121C905DC
:100F60000123411842001B06D3185B0E0AD0C110A2
:100F70000722D206891840075242D14201D55200B9
:100F800089187047090208D50146002A03D0C10F0D
:100F9000C9070020704710467047420202D0002067
:100FA00002497047072109050143F4E70000F87F73
:100FB000F0B5FF252D04C609C209FF2704462E40BF
:100FC0000137CB093E4348402A402B400746002AC0
:100FD0006BD0002B69D0AA4267D0AB4265D0002805
:100FE00000DA32460125ED0529432C43090220028F
:100FF000090AD21A4B0C7F24E31A434C000A7C44A2
:10100000E35C7D242404121914145B00A2188842A6
:1010100001D3521C00E0400049420C465C432411BD
:101020005C43DB016415E318040A5C43C502200D30
:101030000C4644436419250A5D432303EC0C0D461A
:10104000654300030019EB184C42A34201D35B181F
:10105000401CD4052018002B07D05B00C91804D30E
:10106000401C002901D1400840003F2189048A42E8
:1010700009D3002A08DC1106090F04D0032149070F
:101080004018C00FC007F0BD0122410012068918A8
:101090007F2252069142F6D205214907C84201D566
:1010A0009010F0BDFF20C005F0BD002F00DA3246E1
:1010B0001648AA4207D2AB4205D21902090E17D030
:1010C000F80FC007F0BDFF2563002D06AB42F9D82D
:1010D0004900A942F6D8AB4201D1A942F2D0A942B7
:1010E00001D1002101E061004908D0050843F0BDAD
:1010F0001102090EFBD0FF200243D005F0BD0A46C5
:101100000146104654E70000163E00000000C07F74
:1011100010B501469E240002CA15A307002A02D07A
:101120001843002A04DBA21A002A0CDDD04010BDAF
:101130001206120E01D140004008A21A03D4D0407A
:1011400040420028F3DDFF2248001206904201D9F8
:10115000002010BDC817C043584010BD1F22030C0B
:1011600002D10F2200041CD0030E01D10002083A64
:10117000030F01D10001121F830F01D18000921EC5
:10118000002801DB4000521ED205511802125118EE
:101190001922904004D3491C002801D14908490074
:1011A00008467047C10FC90700D04042012292078C
:1011B0001143D3E701218907D0E710B500F0F8F813
:1011C000006810BD10B5044600F0F2F8046010BDD0
:1011D000F0B501230A0DDB0200249A43E443002505
:1011E000002A28D05B1E9A4223D05B10D61AA64252
:1011F00028DB721C48D0342E18D20222142E2BD891
:1012000022D00B460D36B34001D100280FD0002468
:10121000701E0B468340DB0FF2412846551EA94342
:10122000002B03D08918002C00D09143F0BD01247D
:10123000EEE79A4239D04A000243F7D0C90FC907F6
:101240002846F0BD002223E00122C30F400001D058
:101250000024E2E70124E0E70346133EB34011D047
:101260000023741E0746A740FC0FF2411746521E8A
:101270009043002CE5D0002B00D0521CC0196941CE
:101280009043F0BD0123ECE701220B0318430AD081
:101290000023C90FC9072846002AF2D0002BF0D13D
:1012A000054A1143F0BD0123F3E70A0301D10028E9
:1012B000F8D000200149F0BD0000F03F0000F87FA9
:1012C00070B505464800440D124B0020002C0AD092
:1012D000634008D09A4206DA6642B24203DD120544
:1012E0004019514170BD002C08D0002B09D0C90F06
:1012F000C907002AF6DB084A114370BDC90FC907A8
:1013000070BD28460A03104302D00020034970BD77
:10131000284670BDFF0700000000F07F0000F87F46
:1013200030B5C30D1906214A090E31D0FF292FD03F
:1013300000283ADB01025002014301207D33C34003
:1013400000D24908012080071724091A24064908F9
:1013500082102343FF252D064C00211A04D4891A3C
:1013600002D45400201800E0214652085B19F3D53E
:101370001A220446944007D382068A4203D1802170
:101380008030884300E08030C009D905081830BD9E
:10139000FF2904D04100FAD0C00FC00730BD410280
:1013A00001D0104630BD0028FCDAFAE70000C07F0B
:1013B0000048704768012020F8B5264C4E00069D75
:1013C000A6420AD8A64201D1002806D15E00A64254
:1013D00003D8A6420AD1002A08D00D2424042542AD
:1013E00033D02946002000F094F8F8BD0C461C4389
:1013F00011D4994207D0C81A02D3EFF30080F8BD88
:10140000EFF30080F8BD801A02D3EFF30080F8BD3F
:10141000EFF30080F8BD09242407E5008B4207D0D4
:10142000581A02D3EFF3008006E0EFF3008007E0E4
:10143000101A03D3EFF30080A04303E0EFF3008022
:10144000A043284380F30088F8BD009500F078F8A9
:10145000F8BD00000000E0FF10B5FF231B064400AC
:101460009C421DD84C009C421AD80346124A0B439A
:1014700007D4401A02D3EFF3008010BDEFF30080D1
:1014800010BD081A03D3EFF30080904305E0EFF39B
:10149000008001219043C907084380F3008810BDF4
:1014A0000D231B041A4204D01146002000F031F82D
:1014B00010BD00F04FF810BD0000009000487047CC
:1014C000680120207546FFF7F9FFAE460500694622
:1014D0005346C008C000854618B020B5FEF76AFE26
:1014E00060BCB64600260027C0C5C0C5C0C5C0C583
:1014F000C0C5C0C5C0C5C0C5403D490849008D46EE
:10150000704710B50446C046C0462046FEF727FE89
:1015100010BDC80212D54803400F002804D0C803EC
:10152000C043012188407047EFF3008000010009AB
:1015300003210907084380F30088704700207047A3
:1015400010B500200249029A00F00CF810BD00000E
:101550000000F87F10B5024800F004F810BD00004C
:101560000000C07F10B50C461107090F092904D0EF
:101570000A290AD008290CD104E011460820FFF7F7
:10158000C8FF06E0510606D501E0510601D501204D
:10159000C007214610BDD10607D501010909CC08B5
:1015A0004907000E0006044309E0410F20024907E5
:1015B000000A0143200E00061D22D14101430846C6
:1015C000E7E7000001491820ABBEFEE72600020055
:1015D000704770B58C180578401C6B075B0F01D104
:1015E0000378401C2A1106D10278401C03E00678DB
:1015F000401C0E70491C5B1EF9D12B0705D400233B
:10160000521E0DD40B70491CFAE70378401CCB1A0C
:10161000921C03E01D780D70491C5B1C521EF9D50D
:10162000A142D8D3002070BDF0B589B000F0CEFD46
:10163000784E706D014603F0EFFA0546F46C3746BC
:101640002046214603F0E8FA294603F021FA366DD8
:1016500003F070F901463046FFF7AAFCFFF77EFC65
:1016600003F00CF8089007913046314603F0D4FAA5
:10167000294603F00DFA03F05DF901462046FFF715
:1016800097FCFFF76BFC02F0F9FF05900491B86C32
:10169000614C214603F0C0FA0721CD062946029588
:1016A00003F0BAFA03905D490860B86D214603F073
:1016B000B3FA294603F0B0FAFFF750FC07460E468E
:1016C00057480068FFF74AFC05460C46554A564BFA
:1016D00038463146FFF71EFB2A462346FFF776F8C9
:1016E000FEF7BAFE06904E4908604A48C06D4A4966
:1016F00003F092FA029903F08FFAFFF72FFC0446E9
:101700000D464A480068FFF729FC06460F4620466A
:101710002946444A444BFFF7FDFA32463B46FFF761
:1017200055F8FEF799FE0190404908600398FFF7CD
:1017300015FC04460D463E480068FFF70FFC0746BF
:101740000E4620462946374A374BFFF7E3FA3A461A
:101750003346FFF73BF8FEF77FFE039034490860FD
:10176000032042070292334B05980499FFF7D2FAFF
:10177000FEF772FEFFF7F2FB07460D460198FFF7F2
:10178000EDFB2D4A2D4BFFF7C5FA06460C462C4AB9
:101790002C4B38462946FFF7BDFA32462346FFF761
:1017A00015F8FEF759FE1B494860274B0898079922
:1017B000029AFFF7AFFAFEF74FFEFFF7CFFB0446A2
:1017C0000D460698FFF7CAFB1B4A1C4BFFF7A2FA0F
:1017D00006460F4620462946194A1A4BFFF79AFA41
:1017E00032463B46FEF7F2FFFEF736FE094E30600A
:1017F0000398FFF7B3FB04460D46144A144BFFF75A
:1018000089FA22462B46FEF7E1FFFEF725FEB0607F
:1018100009B0F0BD540820200000FA44CC0120207B
:10182000C40820207B14AE47E17A843F5009202071
:10183000D806202094A94CC0A09999999999A93FBC
:10184000666666666666EE3F94A94C4085B69C4B1C
:101850007155C53F811E091F00BFFCD2704710B5EE
:10186000002A0FD091235B01C3180020DC692405F6
:10187000240F05D00C5C1C60401C8242F6D110463F
:1018800080B210BD002080B210BD0000084A83580D
:1018900080210B43835080180F22120243681340AB
:1018A0000122D2029342F7D102688A430260704754
:1018B0003812000070B50A780C231A400124240362
:1018C00005196E689E43B2186A6049780722114074
:1018D000035993435918015170BD000070B582B08F
:1018E0000B794A79002A24D0174A21242401202B7D
:1018F00000D070348218002B00D18824156C3F4E24
:1019000035402D191564556C35402C1954641468F4
:10191000794D2C40146054682C40546000241462AB
:1019200054628F24E443156D25401565556D25409F
:1019300055656A4613718B79537109680091114698
:1019400000F004F802B070BD38180000F0B5684A25
:101950008218294BC318087920280DD000281DD1E2
:101960000C68641E5460D56E244C25408835D566BD
:101970001646703688251DE00C68641E5460D46ECF
:101980001E4D2C401E4EA419D466146F2C40A41971
:101990001467012465071B4C16460BE00C686408AD
:1019A0005460D66E154C26400525ED017619D66695
:1019B00016467036376827402F433760D46A4E4D3D
:1019C0002C40D462146B2C4014630024D46414653E
:1019D0008F24E443D56F2540D5671D6825401D60E1
:1019E00049790143BD2008401168074B0B40C018DE
:1019F000801C1060F0BDC0468418000024493E00E1
:101A000001040000FFFFFFCF4000FFCFB0B54A68E0
:101A1000364BC250364A80180A78222A58D893008A
:101A200001A4E3589F46C046C71A0000D11A00001F
:101A3000C71A0000D11A0000D11A0000D11A000004
:101A4000D11A0000D11A0000D11A0000D11A0000EA
:101A5000D11A0000D11A0000D11A0000D11A0000DA
:101A6000D11A0000D11A0000B51A0000D11A0000E6
:101A7000B51A0000D11A0000D11A0000D11A0000D6
:101A8000D11A0000D11A0000D11A0000D11A0000AA
:101A9000D11A0000D11A0000D11A0000D11A00009A
:101AA000D11A0000D11A0000B51A0000D11A0000A6
:101AB000B51A000003231B0704689C4301235B073E
:101AC000E318036004E003231B0704689C430460DD
:101AD0000B8AC360CB68074C1C40C36A064D1D408F
:101AE0002B19C362097A11430160B0BD08180000C8
:101AF00004180000777702008888FDFF10B50723DF
:101B00009B04194092008018024A84589C43611833
:101B1000815010BD3018000010B5029CA4000019BF
:101B200011431943014A815010BDC04650180000AE
:101B300092008018014A81507047C046101800007A
:101B400010B50122120383180C789C604B788350E7
:101B50008978014A815010BD0C110000B0B51122E6
:101B6000120283580124A34383500B888C781C43B2
:101B70008B882343094C1C408358094D1D40631931
:101B800083508B79CC791C43097A21437E231940F9
:101B9000801842689A4351184160B0BD1867000030
:101BA000E798FDFF10B50122120383180C789C60A2
:101BB0004978815010BD0000034A8018026812065F
:101BC000FCD481617047C0460811000070B52848F8
:101BD000006880074BD50123264908461038046861
:101BE000600689480ED50A68402515430D600268D5
:101BF0000568520606D40268120603D41E4A156808
:101C00006D1E15605A0225060ED50D6880262E43DE
:101C10000E60056806682D0606D405686D0603D4B7
:101C2000154D2E68761C2E60254615401B02E405D6
:101C30000DD50C681C430C60046806681C4206D174
:101C40000468144203D10D4C2668761E2660002DD0
:101C50000DD00C6814430C6001680468114206D171
:101C60000068184203D105480168491C016070BD35
:101C70004011404048300A402002202030022020FD
:101C800070B5054608060ED00C46084E07E02978C8
:101C90003046FFF791FF6D1C641E200603D0002D17
:101CA000F5D10025F8E7012070BDC0460080104046
:101CB00010B50146364800220260134602E0521C6D
:101CC000072A06D00C46D440E407F8D05B1C03601A
:101CD000F5E702680020032A00DB54E0491E5F2973
:101CE00000D942E07944097949008F442F413C33BF
:101CF0003E383E4C3E3E3E433E3E3E453E3E3E3EF0
:101D00003E3E3E4A3E3E3E3E3E3E3E483E3E3E3EDD
:101D10003E3E3E3E3E3E3E3E3E3E3E313E3E3E3EF0
:101D20003E3E3E3E3E3E3E3E3E3E3E3A3E3E3E3ED7
:101D30003E3E3E3E3E3E3E3E3E3E3E3E3E3E3E3EC3
:101D40003E3E3E3E3E3E3E3E3E3E3E3611481AE060
:101D5000174818E00320800715E0144813E01048E6
:101D600011E011480FE00C480DE0124800680AE04D
:101D70000A4808E00B4806E00120800703E08120C4
:101D800000E07F20C0050B4908600B49086010BDCA
:101D9000DC0120200000C0C00000A0C0000080C006
:101DA000000040C0000080BF0000C0400000A04014
:101DB00000004040D8012020D401202010B5124856
:101DC0000168890C40220A400168C90B20230B409E
:101DD0009A18A3490B68DB0D10241C4012190368E4
:101DE0001B0C08241C40121903681B0C04241C4003
:101DF00012190968C90A02230B40D1180068C003F0
:101E0000C00F0818C0B210BD80330A40F0B581B0D1
:101E10001C46154607466A4611701D4811461A466B
:101E2000FFF71DFD1B4EB0688006FCD530681A49CF
:101E300008407F00C0193060706818490840184990
:101E400040187060B0684006FCD4B0688006FCD5CD
:101E50000F48FFF71BFD30680F490840074301207A
:101E60003843306070680D49084021040143072061
:101E700008437060002C08D00020F16A0907FCD0EC
:101E8000F1682954401CA042F7D101B0F0BDC04612
:101E900000200F4010320F4000F8FFFFF8FF00F065
:101EA00007000100F0B581B001200706134D2F6136
:101EB000C6052E600224204601F0EEFE2F6020466B
:101EC00001F0EAFE2E650E480E490160644909687A
:101ED000812202602E642F6108020CD52E6102243B
:101EE000204601F0D9FE2F60204601F0D5FE2E607D
:101EF000204601F0D1FE01B0F0BDC04690120A406C
:101F0000D48042408100060010B5564C607800280D
:101F10000CD00020607020480178491CCAB2082A01
:101F200000D90121017000F029FB11E0607A00283E
:101F300004D01A4800210170617207E0607C00281B
:101F400006D0164801210170002060741448017009
:101F5000A078002801D0A01C0AE0A07A002802D0B6
:101F600020460A3004E0A07C002803D0204612302E
:101F700000210170E078002801D0E41C08E0E07A3C
:101F8000002801D00B3403E0E07C002802D0133499
:101F90000020207010BDC04614002020FC0120202D
:101FA000FD01202070B52E4A10688004C10F2D4815
:101FB000017011684904C90F017201218B04126874
:101FC0001A405342534103740022134603E008327F
:101FD0005B1C182A42D08418E579022D0FD0012D00
:101FE00007D0002D2DD1855C002D05D1E171002594
:101FF00020E0855C002D10D00025E57121E0855C96
:10200000002D12D0A679462E0AD82579002D13D09E
:10201000DD0045192D1DA17010E00225E57110E0CD
:10202000002D02D0A579472DE6D2A579472D00D302
:10203000E1706D1CA57104E02171651D00262E70F4
:10204000E6712579002DC2D065796D1C6571EDB200
:10205000232DBCD3002525716170B8E770BDC04643
:1020600080130A40E4012020F0B583B000244849E1
:10207000085F0C6047490D5F0C60FEF740FE464A62
:10208000464BFEF7D3FB03229707454B3A46FEF734
:1020900041FE444B22460294FEF73CFEFEF7DCF97B
:1020A0000646414806602846FEF729FE3A4A3B4B61
:1020B000FEF7BCFB3A463A4BFEF72CFE2246394B64
:1020C000FEF728FEFEF7C8F901900121CA07424039
:1020D00036490A603046FEF741FF06460F4634484F
:1020E0000068FEF73BFF04460D46324A324B30464D
:1020F0003946FEF70FFE22462B46FEF767FBFEF73A
:10210000ABF900902A4908600198FEF727FF0446C2
:102110000D462A480068FEF721FF07460E46204676
:102120002946244A244BFEF7F5FD02460B46384665
:102130003146FEF758FBFEF78FF905461F4805604C
:102140000098FEF70BFF1E4B029C2246FEF7E2FDB5
:1021500007460E4628462546FEF700FF2246184B46
:10216000FEF7D8FD02460B4638463146FEF72EFBF9
:10217000FEF772F9134C2060134902F071FA00283F
:1021800004D10B48056025600C48056003B0F0BD24
:102190002002202030022020CDCCCCCCCCCC34402E
:1021A000CA21094000404540280220203802202052
:1021B000240220207B14AE47E17A843F34022020A1
:1021C0000000E03F1C02202000401C46F0B58BB010
:1021D00068203B2107AC0E232246FFF717FE6078EC
:1021E000079909020E18D34F3E82E078A1780902C0
:1021F0000D187D8260790899090208180390B88249
:10220000607A0999090208180490F882E07AA17AA4
:102210000902081805903883607B0A9909020A1898
:10222000E079A17906927A830902081800B2FEF7D4
:10223000B9FFC149FEF7BCFEC04902F029FCF860B5
:10224000BF480188C72900D98AE0491C018030B203
:10225000FEF755FD00220292C74BFEF7E7FA06464D
:102260003C460F46E069FEF779FE02460B463046D3
:102270003946FEF7ABFAFEF7EFF8E06128B2FEF759
:102280003EFD029C2246BC4BFEF7D0FA06460F46A6
:10229000A84D286AFEF762FE02460B4630463946D4
:1022A000FEF794FAFEF7D8F82862039800B2FEF71A
:1022B00026FD2246B04BFEF7B9FA06460F46686A7D
:1022C000FEF74CFE02460B4630463946FEF77EFAD4
:1022D000FEF7C2F86862049800B2FEF710FD2246CD
:1022E000A54BFEF7A3FA06460F46A86AFEF736FE90
:1022F00002460B4630463946FEF768FAFEF7ACF860
:10230000A862059800B2FEF7FAFC22469A4BFEF747
:102310008DFA06460F46E86AFEF720FE02460B4697
:1023200030463946FEF752FAFEF796F82E46E86236
:10233000069800B2FEF7E3FC22468F4BFEF776FAD2
:1023400004460D46306BFEF709FE02460B4620465A
:102350002946FEF73BFAFEF77FF830630BB0F0BD7D
:10236000039800B2FEF71EFF0390F86328B2FEF751
:1023700019FF0290B86330B2FEF714FF3C460746DF
:102380006063049800B2FEF70DFFA16A02F09CFCA6
:1023900004902064059800B2FEF704FFE16A02F0A1
:1023A00093FC05906064069800B2FEF7FBFE216B7B
:1023B00002F08AFC0690A06462480068624902F05C
:1023C00067FB0546614902F063FB01462846FEF7BC
:1023D000EFFD06467F20C40520460194314602F0F9
:1023E00073FC0146284602F017FC5649086058481D
:1023F00005683846294602F067FC0146304602F07F
:102400000BFC294602F044FB07465148076051483F
:1024100000684D4902F03CFB06464C4902F038FB8F
:1024200001463046FEF7C4FD05462046294602F027
:102430004BFC0146304602F0EFFB46490860464C33
:1024400026680298314602F03FFC0146284602F019
:10245000E3FB314602F01CFB054620603846FEF7E0
:1024600057FEFEF79FFE334CE0642846FEF750FE11
:10247000FEF798FE206539480068334902F008FBF2
:102480000546324902F004FB01462846FEF790FD5E
:102490000646334C27680398394602F015FC01467E
:1024A000304602F0B9FB394602F0F2FA07462060E6
:1024B0000198314602F008FC0146284602F0ACFBC8
:1024C000264908603846FEF723FEFEF76BFE194CDE
:1024D00060652449049802F09FFB0646224F386845
:1024E000224D294602F098FB314602F0D1FA3860BD
:1024F000A06505981B4902F08FFB06461C4F386803
:10250000294602F089FB314602F0C2FA3860E065E4
:1025100027460698134902F07FFB0446154E3068A3
:10252000294602F079FB214602F0B2FA30603866A3
:102530000BB0F0BD540820200000AA43B81E124280
:102540000C022020080020206F12833A0C020B3F5F
:102550000402202010002020080220200C0020204F
:1025600000022020CBA1C53E100220201A2F1D3FC3
:1025700014022020180220200000694010B500201D
:10258000B34980220B4600241C70521E0833002AD7
:10259000F9D1491C401C0828F3D100F0A1F810BD66
:1025A000F0B581B0AE200024214600F0C5FE2046E3
:1025B000214600F0C1FE1020214600F0BDFE40275C
:1025C0003846214600F0B8FE8120214600F0B4FED6
:1025D000CF20214600F0B0FEA120214600F0ACFE45
:1025E000C820214600F0A8FEA6252846214600F076
:1025F000A3FEA820214600F09FFE3F20214600F0C8
:102600009BFED320214600F097FE2046214600F095
:1026100093FED520214600F08FFE802630462146CD
:1026200000F08AFED920214600F086FEF1202146E6
:1026300000F082FEDA20214600F07EFE12202146C4
:1026400000F07AFEDB20214600F076FE3846214677
:1026500000F072FE2020214600F06EFE022021468E
:1026600000F06AFE8D20214600F066FE142021460F
:1026700000F062FEA420214600F05EFE28462146BE
:1026800000F05AFECA480146324600250D70083156
:10269000521EFAD1401C641C082CF4D100F020F822
:1026A000AF20294600F048FEA620294600F044FE4F
:1026B000C820294600F040FEA120294600F03CFE3B
:1026C000BB4880210246002313700832491EFAD10C
:1026D000401C6D1C082DF4D100F002F801B0F0BDD3
:1026E000F0B587B00120C60507060020009001461E
:1026F0000497059616E055480560059E06602F462E
:102700000225284601F0C8FA069C2760284601F0F9
:10271000C3FA2660284601F0BFFA0299491C08292D
:1027200000D191E0B02002910843C0B2009D29463B
:1027300000F002FE2846294600F0FEFD1020294642
:1027400000F0FAFD414C2046103806600690076004
:102750000220039001F0A0FA2660039801F09CFA91
:10276000276027607826284611E00598206002251A
:10277000284601F091FA049F06980760284601F068
:102780008BFA27600399481C7600072908D203902A
:10279000276070B20028E8D5059806990860E6E73A
:1027A000FFF780FB29490F604025002612E00598BD
:1027B0000860069C0220039001F06EFA049F2760D7
:1027C000039801F069FA21490F60701C6D00072E13
:1027D000064607D20F6068B20028E8D5069C059827
:1027E0002060E7E7FFF75EFB002001903D4606E032
:1027F000FFF758FB0398401C802800D17BE703902B
:10280000C0006B4908180299465C104F3D60019C5E
:1028100012E0059838600225284601F03DFA049937
:102820000698016028460D4601F036FA3D60601CAE
:102830007600072C0446DBD23D6070B20028069972
:10284000E7D505980860E6E707B0F0BDA0120A409A
:1028500040022020F0B587B004AC07C4002B2CD078
:102860000C9844080390082800D1A41C0D980190EE
:102870000025029315E020466843049A87180698BD
:1028800001F048FD0199009106403036F8B20599F3
:102890003246039B00F014F86D1CE8B2029B98428C
:1028A0000BD2E843C018012601063146E3D00121CE
:1028B0004900401E0206FBD1DDE707B0F0BD000075
:1028C000F0B589B0082B01D1062407E05C07DD08CC
:1028D000002C00D06D1C5C086C43E4B20494102BF7
:1028E00062D1049C002C5FD00E9C0794203AD2B297
:1028F000002514012D4A121900922A46044601951A
:102900000393029005950098865CE2B2D2002848B5
:1029100080180691019A089407E0A2432A70089C47
:102920007A1C491C7608072F24D21746F20762B298
:102930000FD1002AF4D4CAB23F2AF1D807250D409E
:102940000124AC40D508425D4519079B002BE4D11A
:102950000EE0002AE4D4CAB23F2AE1D807250D4090
:102960000124AC40D508425D4519079B002BD4D00B
:102970002243D3E7621CD1B202980C1A082C02D071
:10298000039B069902E006990831039B059D082CDC
:10299000044600D01446102B06D16D1CEAB2264620
:1029A000049C94423446ADD809B0F0BDF04E00000E
:1029B00040022020F0B58BB014460891064600274F
:1029C00010460A9319463A463B4601F026FE1399F3
:1029D000129D119A0792002806910396099408D136
:1029E00000912B22304608992B46FFF769FF0A9E7B
:1029F0001CE0002220460A9E3146134601F002FEEA
:102A0000002808D0069800902022039808992B46A9
:102A1000FFF756FF0AE0069800902D2203980899C8
:102A20002B46FFF74DFF0120C00746401098059048
:102A30000A95083D6C426C41099D28463146FEF7D7
:102A400019F90190FEF763F902460B462846314614
:102A5000FDF7C9FE0546099107980126002804D014
:102A60000A214E43401E0106FAD160000290304612
:102A7000FEF74DF902460B4628460999FEF74AF93A
:102A800001F00AFFFEF7F6F80490314601F042FC2F
:102A90000A9949080991059B002B2ED00399099D9D
:102AA00069180A9A082A00D1AD1C019A8618029862
:102AB0000C1817E00121304601F02CFC0A21FDF72B
:102AC000CBFB0698009030220A4328467843001931
:102AD000C0B208990A9BFFF7F3FE7F1CF8B2059B72
:102AE00098420AD2F843C0180106E3D001210A2215
:102AF0005143401E0206FAD1DDE7069F0097099870
:102B000002990C18581C604303994018C0B22E2239
:102B1000089E31461D460A9BFFF7D2FE079A002AFF
:102B20002DD0A81C60430A99082902D10999891C53
:102B3000099103994418002516E00121049801F039
:102B4000E9FB0A21FDF788FB009730220A43099828
:102B500068430019C0B231460A9BFFF7B1FE6D1CF5
:102B6000E8B2079A90420AD2E84380180106E4D0FE
:102B700001210A225143401E0206FAD1DEE70BB0C2
:102B8000F0BDF0B585B002AC07C4002B36D01C46B2
:102B90000A9D6808082D00D1801C01900B9F00261B
:102BA00010E0009730200143CAB2019870430299A7
:102BB0004018C0B203992B46FFF782FE761CF0B294
:102BC000A0421BD2F0430019010606D001210A22BF
:102BD0005143401E0206FAD100E00121049801F0A1
:102BE00099FB0A21FDF738FB0029DAD100970198FB
:102BF000704302994018C0B23022DBE705B0F0BD47
:102C0000F0B585B01C4607460B980A9D012A039132
:102C1000029007DB019200902B2238462B46FFF7EB
:102C20004FFE13E0002A09D0009016462D223846A8
:102C30002B46FFF745FE7642019607E000902022E2
:102C400038462B46FFF73CFE002001900495083DD6
:102C500068426841002C28D0400004994908451872
:102C6000EE19002716E00121019801F053FB0A211B
:102C7000FDF7F2FA0298009030220A432846784382
:102C80008019C0B20399049BFFF71AFE7F1CF8B2AB
:102C9000A0420AD2F84300190106E4D001210A2219
:102CA0005143401E0206FAD1DEE705B0F0BDF0B593
:102CB00083B00646177838462038C0B25E281CD844
:102CC000082B01D05D0800E0062508980190541CEF
:102CD000029501980090F0B2FAB20D461F46FFF738
:102CE000EFFD3B462946029D7619601C27783A463F
:102CF000203AD2B25F2A0446EBD303B0F0BD000005
:102D0000F0B589B05A480078401E082800D98AE2F8
:102D10004000C04678448088400087440800A001F5
:102D2000CF0012016600F20134025E018602012426
:102D300000942E2000264FA2102531462B46FFF787
:102D4000B6FF4E4802780095019407233046089656
:102D50002946FFF77FFD4A480268009501945020FC
:102D600029462346FFF70DFF46480068FEF7D0F9D5
:102D7000024600950194642029462346FFF740FF50
:102D800000942021079140A230462B46FFF78FFF89
:102D900040480068FEF7E2F802460B460227032689
:102DA0000096019706970295039441200799FFF733
:102DB00001FE39480068FEF7D1F802460B4600963E
:102DC000019702950394302708983946FFF7F2FDE2
:102DD00032480068FEF7C2F802460B460096069895
:102DE000019002950394462018E2012600961E20C9
:102DF000002508952AA2102429462346FFF757FFED
:102E000000962A4A284621462346FFF750FF2848C5
:102E10000068FEF7A3F802460B46032500950195CE
:102E2000029403961A2007902146FFF7C3FD0096EF
:102E30002027204A089839462346FFF738FF1C48C8
:102E40004068FEF78BF802460B4600950195029408
:102E5000039607983946FFF7ADFD00963027164ACE
:102E6000089839462346FFF722FF1148CCE1C046B7
:102E7000140020204D61696E00000000D001202068
:102E8000DC012020D4012020545F53706565643A32
:102E9000000000000000202028022020380220200E
:102EA0005475726E5F504944000000001C550000CC
:102EB0003001202018550000145500000124009412
:102EC0001A2700260896F6A210253846079731469D
:102ED0002B46FFF7ECFE0094FB4A304629462B4672
:102EE000FFF7E5FEF1480068FEF738F802460B46AA
:102EF0000326009601960295039438462946FFF76B
:102F000059FD00942027F24A089839462B46FFF7CE
:102F1000CEFEFD484068FEF721F802460B460096BB
:102F200001960295039407983946FFF743FD0094F4
:102F30003027E84A089839462B46FFF7B8FEF24892
:102F400041E0012400941A2700260896EAA21025E1
:102F50003846079731462B46FFF7A9FE0094DA4A18
:102F6000304629462B46FFF7A2FEE6480068FDF7EB
:102F7000F5FF02460B460326009601960295039440
:102F800038462946FFF716FD00942027D04A0898B6
:102F900039462B46FFF78BFEDA484068FDF7DEFF27
:102FA00002460B460096019602950394079839460F
:102FB000FFF700FD00943027C64A089839462B4693
:102FC000FFF775FECF488068FDF7C8FF02460B4645
:102FD00000960196029503941FE1012600961C209D
:102FE00000250895B5A2102429462346FFF75FFE69
:102FF0000096B54A284621462346FFF758FEB348B7
:103000000068FDF7ABFF02460B46032500950195CE
:10301000029403961A2007902146FFF7CBFC0096F6
:103020002027AB4A089839462346FFF740FEA748B9
:103030004068FDF793FF02460B4600950195029408
:10304000039607983946FFF7B5FC00963027A14A4A
:10305000089839462346FFF72AFE9C48D4E001260B
:103060000096282000250895A8A21024294623466A
:10307000FFF71DFE0096A7A2284621462346FFF72C
:1030800016FEA6480068FDF769FF02460B460225BA
:103090000321079100910195069502940396232040
:1030A00005902146FFF786FC009620279CA20898F1
:1030B00039462346FFF7FBFD98484068FDF74EFF71
:1030C00002460B4607980090019502940396059DD1
:1030D00028463946FFF76EFC0096302792A20898E2
:1030E00039462346FFF7E3FD8C488068FDF736FF3D
:1030F00002460B4607980090069801A951C1284640
:103100008CE00126009614200025089575A2102455
:1031100029462346FFF7CBFD00966B4A28462146F9
:103120002346FFF7C4FD73480068FDF717FF02460A
:103130000B46032500950195029403961A200790EB
:103140002146FFF737FC00962027614A0898394648
:103150002346FFF7ACFD67484068FDF7FFFE0246D7
:103160000B46009501950294039607983946FFF7A0
:1031700021FC00963027574A089839462346FFF726
:1031800096FD5C4840E0012600961E20002508952B
:1031900051A2102429462346FFF789FD00964A4A8A
:1031A000284621462346FFF782FD41480068FDF787
:1031B000D5FE02460B460325009501950294039621
:1031C0001A2007902146FFF7F5FB00962027404A7A
:1031D000089839462346FFF76AFD35484068FDF7F1
:1031E000BDFE02460B460095019502940396079892
:1031F0003946FFF7DFFB00963027364A08983946F4
:103200002346FFF754FD2A488068FDF7A7FE0246D3
:103210000B46009501950294039607983946FFF7EF
:10322000C9FB00F085F809B0F0BD21480068FDF742
:1032300095FE02460B4601261024032700970197AE
:1032400002940396002528462946FFF7B3FB184849
:103250004068FDF783FE02460B46009701970294F3
:10326000039628462146FFF7A5FB12480068FDF7A4
:1032700075FE02460B4600970197029403962021A3
:103280002846FFF797FB0C480068FDF767FE0246EB
:103290000B46009701970294039630212846BEE71B
:1032A0004D6F746F72315F5049440000C0002020A0
:1032B00088002020D4062020CC012020416E676C9D
:1032C000655F5049440000001C5500001800202094
:1032D00018550000145500004779726F5F5049443B
:1032E0000000000044697374616E63655F50494477
:1032F00000000000500020204D6F746F72325F504C
:1033000049440000F8002020C0002020416E676C76
:10331000650000005069743A000000005408202045
:10332000526F6C3A000000005961773A00000000CB
:1033300080B5FFF7D5F980BDF0B585B0009101905B
:10334000F14F394610390120C4050C60050604917F
:103350000D600226304600F09FFC02943C6030462F
:1033600000F09AFC29463D603D60782500240391D9
:1033700014E0029838600226304600F08DFC039F6E
:1033800004980760304600F087FC3946DE4A176033
:10339000601C6D00072C0446174607D2396068B2DE
:1033A0000028E6D5029804990860E4E7FEF77AFD64
:1033B00003993960009800281FD04026002414E0AB
:1033C000029838600225284600F066FC039F0498A6
:1033D0000760284600F060FC3946CB4A1760601C45
:1033E0007600072C044617461BD2396070B20028BD
:1033F000E6D5029804990860E4E700243960029851
:1034000038600225284600F047FC049803990160C3
:10341000284600F041FC03993960601C072C0446E3
:10342000ECD3FEF73FFD039E3E600024019A12E0BC
:10343000029838600225284600F02EFC039E04986E
:103440000660284600F028FC3E60601C019A52008D
:10345000072C044608D23E6050B200280192E7D5FE
:10346000029804990860E5E7FEF71CFD3E60029DA6
:103470003D600224204600F00FFC049F3E60204681
:1034800000F00AFC3D60204600F006FC05B0F0BDEF
:10349000F0B583B00446C2600161104601F014FC2F
:1034A00005466061216801F0B7FB02902062606808
:1034B000294601F0B1FB616A01F0EAFA0646606252
:1034C000606BFDF777FE07463046394601F0C8F8D5
:1034D000002800D167620120C00701904740606A60
:1034E000394601F0B2F8002800D16762A169284688
:1034F000009101F0E9FB0146A06801F08DFB064652
:10350000A062616A029801F0C3FA0146304601F0F8
:10351000BFFA0746E062206BFDF74CFE06463846D0
:10352000314601F09DF8002800D1E662019846403E
:10353000E06A314601F089F8002800D1E662A56111
:103540000098E061E06A03B0F0BD000080B582B091
:10355000002001902C490978491E042949D8C04609
:103560007944097949008F4402341E2912002A49FE
:1035700008702749087027490870244908702B48AB
:103580000078022830D0012833D12A482DE01F4985
:1035900008701F4908701F4908701F4801210170F9
:1035A0001E48806822E0194901220A7018490870F3
:1035B00018490870184908701A4816E0134908702D
:1035C0001349087013480121017013480170144811
:1035D0000BE00E4908700E4901220A700D4908706F
:1035E0000D490870104800E011480068FDF790FD93
:1035F00001900220012101AA042300F04BFE00F0FB
:1036000091FC02B080BDC04604002020C9012020EA
:1036100016002020CA012020C801202054082020A4
:10362000CC0120201C022020D401202015002020C5
:103630003802202028022020F0B581B00D46014636
:1036400030480078304F314EAD4C01280FD1002961
:1036500018D43048814200DB014601222046FEF7A3
:1036600067FA103F802038600420306019E0802025
:103670003860042030602648002101624162816286
:10368000C1620EE049422348814200DB014601222B
:103690002046FEF74DFA802038603046103804216D
:1036A0000160012087031C48007801280ED1002DFD
:1036B00017D41848854200DB0546002220462946DB
:1036C000FEF736FA08203060103E17E00820306020
:1036D000376012480021016241628162C16201B01B
:1036E000F0BD69420B48814200DB014600222046C2
:1036F000FEF71EFA3046103808210160376001B02D
:10370000F0BDC046FC012020A0120A40A0320A40B1
:10371000C00020200F270000FD012020F8002020FD
:10372000F0B53B498522CA6101246305394803602D
:103730000A62A2050260384AD51C384B1D600D6034
:1037400064061D6825431D600D6825430D601C46F9
:10375000443C822525601C46403C551C2560812543
:103760000D611C46743C25601C46783C25601C4657
:103770007C3C25601C460C3C22601C46083C2260B8
:103780004A60274CCC638C631E463C3E254F376015
:103790001E46383E37601E46343E37601E46303E79
:1037A00037601E46603E35601E465C3E35601E46F4
:1037B000583E35601E461C3E35604A634A624A6583
:1037C0008A614A61194610390A60143B1A60014641
:1037D000303980220A6001464039134A0A6080323B
:1037E0000260124812490161813C04601149016480
:1037F000FF20000310490A6802430A600F2080017D
:103800000E490A6A02430A620A6802430A60F0BD6E
:103810009C804240D0120A408100040098804240BF
:1038200081000200810006001C00800190320A40E5
:103830000C4000000C40020090330A4028300A403F
:1038400080B511481149FEF735F8032041021048B0
:1038500002680A43026001210A02036813430360FD
:10386000002242611F224262826B07239A438263D5
:103870001A02836B93438363826A04231343836234
:10388000826A0A43826280BD00200F40E05400003B
:1038900000320F4070B582B0194C1A492046FEF72D
:1038A0004FF919492046FEF719F800252046294608
:1038B0002A46FEF73DF90095204629462A462B4622
:1038C000FEF72AF9204629462A46FEF717F901266F
:1038D000204629463246FEF72BF900962046294617
:1038E0002A462B46FEF718F9204629463246FEF7AF
:1038F00005F9064886600321016002B070BDC0462C
:1039000000008640E2540000E854000000118640A8
:103910000A48002101600A480168032291430160BE
:1039200001210A03436813434360C26B102313430E
:10393000C3634902826B8A438263704708030B406A
:1039400000010B4010B50D4C0D492046FEF7F8F86C
:103950000C492046FEF75AF80B48016802220A4338
:103960000260FF20000609490A688243012083079C
:10397000D2180A600649086010BDC0460020864083
:10398000F0540000F45400002830864010E400E0B9
:103990000831864010B5184C18492046FEF702F948
:1039A00017492046FEF7DAF80320C10315480268DC
:1039B0008A4302600169144A0A40D03202614169B7
:1039C00015220A432A218A434261426801210A40A2
:1039D00043688B439A1842608A020C4B1C6814435C
:1039E0001C60FF2212060A4B1C6894431C6002688C
:1039F0000A43026010BDC046008010400855000018
:103A00000A550000009110400000FFFF2890104070
:103A10000CE400E080B500F017F8FFF781FEFFF737
:103A200077FFFFF737FFFFF78DFFFFF709FFFFF77E
:103A3000B1FFB820024900220A5402490A5480BD4D
:103A400098072020DC06202070B50C480C49416006
:103A50000C4A51600C4B59600C4C61600C4D696014
:103A60000C4E71600C490160116019602160296081
:103A700031601020FDF7EEFE70BDC04600080A4020
:103A8000030000B100280A40000886400028864054
:103A900000280F40008810400100002610B50024C7
:103AA0000EC044618461C461046210BDB0B54F486A
:103AB0000068C0B2022800D097E04D480188491C38
:103AC000018089B20A297BD300240480FEF76AFAB8
:103AD000FDF7AAFDFEF772F946490870FEF7E8F80F
:103AE00045480078002819D044480078002808D1BB
:103AF00043480268434881684348FFF7C9FC43498B
:103B0000086042480268424801684248FFF7C0FC2A
:103B10000121C9074140404A116037E03F48007821
:103B2000012808D13E4802683E4801683E48FFF738
:103B3000AFFC3E4908603D4D3D480078012818D152
:103B40002868002100F076FD002812D1394802686B
:103B5000394801683948FFF79BFC296801F05CF897
:103B6000FDF7FCF9364A374BFDF7D4F8FCF774FC47
:103B70000446354804602D682846214600F088FF39
:103B8000254908602846214601F09EF82F4D2860FF
:103B9000FEF76AFA204802682D4801682D48FFF7B1
:103BA00077FCFDF7B5FA04462A682B4801682B48D4
:103BB000FFF76EFCFDF7ACFA01462046FFF73CFD2F
:103BC00027480188491C0180264A13885B1C9CB247
:103BD000632C00D90023138089B2C9087D2904D33E
:103BE000214904220A6000210180B0BD20308640B6
:103BF000C2062020D0012020C8012020CA01202098
:103C0000C80620205408202018002020D406202098
:103C1000CC012020880020202C022020C901202057
:103C2000D00620201C022020500020200000202050
:103C300016002020E0012020D40120203001202087
:103C40007B14AE47E17AA43FCC0620203C02202022
:103C500028022020C000202038022020F800202048
:103C6000C4062020C0062020B0120A40B0B582B0A1
:103C7000074C2068400509D50120850205480168E8
:103C800001A80170012100F01FF9256102B0B0BD4B
:103C9000389010402491104080B54001FDF7DAFDC6
:103CA00080BD0000FFF7B6FEFEF77AFC00F01EF8BC
:103CB00000F02EF90120C103094A1160094B196077
:103CC000C1041160196008490A6802430A600220B1
:103CD0001860FEF719F9FFF713F8FFF737FCF8E75C
:103CE00080E200E000E100E004388640F0B585B0F5
:103CF0000026029602A96B200880039668480222DB
:103D0000FDF7ADFD674D28688006FCD52F46083FBE
:103D1000386865490840D03038602C1F20686349F6
:103D2000084063494018206028684006FCD4286891
:103D30008006FCD55A48FDF7A9FD029602A95D4808
:103D40000880039602225648FDF789FD2868800600
:103D5000FCD5386854490840D021019108433860A7
:103D600020685249084052490843206028684006AC
:103D7000FCD428688006FCD54948FDF787FD0296EB
:103D800002A94D480880039602224548FDF767FDC9
:103D900028688006FCD538684349084001990843E3
:103DA000386020684149084041490843206028683C
:103DB0004006FCD428688006FCD53948FDF766FD2E
:103DC000029602A93D480880039602223448FDF776
:103DD00046FD28688006FCD53868334908400199BB
:103DE0000843386020683149084031490843206061
:103DF00028684006FCD428688006FCD52848FDF7D2
:103E000045FD029602A92E48088003960222244806
:103E1000FDF725FD28688006FCD538682249084052
:103E20000199084338602068204908402049084328
:103E3000206028684006FCD428688006FCD5184815
:103E4000FDF724FD68246B2102AA012520462B469C
:103E5000FDF7DCFF1B4E02983070192102AA2046A4
:103E60002B46FDF7D3FF029870701A2102AA204654
:103E70002B46FDF7CBFF0298B0701B2102AA20460B
:103E80002B46FDF7C3FF0298F0701C2102AA2046C2
:103E90002B46FDF7BBFF0298307105B0F0BDC04660
:103EA00000200F4018320F4000F8FFFFF8FF00F02D
:103EB00007000200190900001A0600001B18000084
:103EC0001C180000C8082020F0B581B00C4603463D
:103ED000DF4FF9880D193E68812D0ED370188022AE
:103EE000511A8FB219463A460093FCF773F90098BD
:103EF000C119E21BD64F304602E07018194622461F
:103F0000FCF768F97F200540FD8001B0F0BDC04698
:103F1000CF490020024A0A60486088607047C04666
:103F2000CD082020F0B5A5B0C94FCC4E04E001204B
:103F3000CB490870CB490870B888FA880490111AE8
:103F400000D2803188B23B89984200D200218DB2E4
:103F5000FF24092D00D2BCE003927A89002A1DD0EB
:103F6000002B0FD1B888411D7F2211403B68595C5E
:103F7000801D1040185C00024018388180B28542D4
:103F800000D2A6E03989BE887018822804913ED3F9
:103F90003A68F1B2802954D100215DE00093019587
:103FA00002943E68C91E8FB2049C7F252146294099
:103FB000735C601C02462A40B25C1202D218A31C39
:103FC0002B40F35C1B04D218E31C2B40F35C1B0654
:103FD000D218CE4B9A4204D07F1E0446E5D1002170
:103FE000C943080420D49A4FB98001207881039BEB
:103FF0005A1A88B28342994E00D28032029C019DA7
:10400000009B91B2994264D30929A9D261E04A1E6A
:1040100011062CD039688B1900211C7861185B1CA3
:10402000521E1406F9D123E0019804990818C01E05
:10403000410E4118A943401A854FB880874E029C13
:1040400047E093197F21C9438C1B00211D78691813
:104050005B1C641E2506F9D103467F331C0607D07E
:1040600014786118521C5B1E1C06F9D100E0002177
:10407000421E530ED3187F25AB43D21A3F68BA5C59
:10408000C9B2914211D1B919812811D38020801B66
:1040900084B205A803902246FCF79CF80398001907
:1040A00004990A1B0C46394605E0FF21012408E06B
:1040B00005A8049C2246FCF78DF8304609302840BC
:1040C000395C0020624FB86030192840B880634ED8
:1040D0000C46103C052C00D9B6E0C0467C4424793F
:1040E0006400A74402523946A86F05A93078401EE3
:1040F000042800D920E74A7D12060B7D1B049A187C
:10410000CB7C1B02D2188B7CD3184A7C12060C7C09
:104110002404A218CC7B240212198C7B12194C7B2C
:1041200024060D7B2D042C19CD7A2D026419897A71
:104130006118C04678440079400087440274626B7D
:10414000550049480078022871D0012800D0F3E6D4
:104150004F48FFF7A3FCEFE63078012800D0E6E6F1
:104160004148007802283DD0012800D0E4E6012033
:10417000E0E63078012833D13B48007802283CD073
:10418000012800D0D8E60020D4E605A83178491EE1
:10419000042900D9D0E6427B1206037B1B049A183F
:1041A000C37A1B02D218807A1018C0467944097964
:1041B00049008F4402022A331D00FCF7F3FF2E4909
:1041C0000860B9E63078012800D0B5E626480078C6
:1041D000401CC1B2022900D9012023490870ABE676
:1041E0000020A5E6012009E02448FFF757FCA3E6DC
:1041F000FCF7D8FF1D4908609EE6002018490870AA
:104200009AE62048FFF74AFC96E6FCF7CBFF1949EF
:10421000086091E61A48FFF741FC8DE6FCF7C2FF03
:104220001349086088E61848FFF738FC84E6174809
:10423000FFF734FC80E6BFF34F8F06480649016064
:10424000BFF34F8F00BFFDE70020C04325B0F0BD96
:10425000B80820200CED00E00400FA05040020203E
:10426000FD012020FC01202015002020C806202070
:10427000D4062020D0062020000020201800202076
:10428000880020205000202030012020F80020202D
:10429000C0002020F0B581B014461B4E00223272BF
:1042A000F2711A4D35606D462A7070723171980046
:1042B000C5B229460B317171090AB1710A213378EF
:1042C0009A18761C491E0B06F9D169460A70010638
:1042D00006D021460B789A18491C401E0306F9D1D6
:1042E0006E46327008480A21094F3A46FDF7C8FC6D
:1042F000204629463A46FDF7C3FC012130463A469E
:10430000FDF7BEFC01B0F0BD54092020535A4859B6
:10431000FFFF0F0043088B421AD3002203098B4290
:1043200079D3030A8B425ED3030B8B4242D3030C37
:104330008B4227D30902FF2212BA030C8B4202D30D
:104340001212090203D0030B8B4233D31AE0D3E0DD
:10435000411A8041401C704703460B4371D4430807
:104360008B42F5D3002203098B4254D3030A8B42BC
:1043700039D3030B8B421DD3030C8B4202D39446DB
:104380006EE0090AC30B8B4201D3CB03C01A524122
:10439000830B8B4201D38B03C01A5241430B8B42D8
:1043A00001D34B03C01A5241030B8B4201D30B03C1
:1043B000C01A5241C30A8B4201D3CB02C01A5241E8
:1043C000830A8B4201D38B02C01A5241430A8B42AB
:1043D00001D34B02C01A5241030A8B4201D30B0294
:1043E000C01A5241CDD2C3098B4201D3CB01C01AAE
:1043F000524183098B4201D38B01C01A52414309B8
:104400008B4201D34B01C01A524103098B4201D3A5
:104410000B01C01A5241C3088B4201D3CB00C01A12
:10442000524183088B4201D38B00C01A524143088A
:104430008B4201D34B00C01A5241411A5241100025
:104440007047CA0F00D04942031000D34042534086
:1044500000229C4603098B422DD3030A8B4212D3C0
:104460008901FC2212BA030A8B420CD389019211F2
:104470008B4208D3890192118B4204D3890137D032
:10448000921100E08909C3098B4201D3CB01C01A04
:10449000524183098B4201D38B01C01A5241430917
:1044A0008B4201D34B01C01A524103098B4201D305
:1044B0000B01C01A5241C3088B4201D3CB00C01A72
:1044C000524183088B4201D38B00C01A5241D9D28A
:1044D00043088B4201D34B00C01A5241411A00D20B
:1044E00001465241104663465B1000D3404270477C
:1044F00063465B1000D3404201B50021004201D069
:10450000C9430846C046C04602BD00004900CA0271
:104510000243100000D004204A0D01D001221043B4
:10452000044A490D914201D102210843012800D1DA
:1045300005207047FF070000F8B504464F1EC8006D
:104540000838211815461E46086849683A46062369
:104550009A4310D02A463346FCF7DCFB3A46D20099
:10456000083AA3181A687F1E5B68FCF72FF9062229
:104570003B469343EED1022F23D0042F11D0062FB8
:104580002FD12A463346FCF7C5FBE36AA26AFCF743
:104590001DF92A463346FCF7BDFB636A226AFCF725
:1045A00015F92A463346FCF7B5FBE369A269FCF727
:1045B0000DF92A463346FCF7ADFB63692269FCF727
:1045C00005F92A463346FCF7A5FBE368A268FCF729
:1045D000FDF82A463346FCF79DFB63682268FCF72A
:1045E000F5F8F8BD10B50122FCF76AFE10BD000019
:1045F000034A10B500201107FCF762FE10BD000051
:1046000001FDFFFF10B500F0ABF9EFF300804000B3
:1046100001D5012010BD002010BD10B500F0D2F969
:10462000EFF300804000800F012801D0012010BD71
:10463000002010BD10B500F071FAEFF300804000CB
:1046400001D5012010BD002010BD10B500F090FA7A
:10465000EFF30080800001D5012010BD002010BDC7
:1046600010B500F0AFFAEFF300804000800F012892
:1046700001D0012010BD002010BD0000F0B589B0B0
:1046800004460D464800069172494008884215DBF1
:104690007149884203DC884207D1002C05D02046AE
:1046A0002946FFF79FFF09B0F0BD6C48002D02DDE1
:1046B0006B4909B0F0BD6B4909B0F0BD6A49884249
:1046C00011DA6A4988420BDA20462946FFF71EFFB5
:1046D000042801D1FFF78CFF2046294609B0F0BD20
:1046E0000026F6435DE06D0061496D08884232DACC
:1046F0006049884219DA0026012332469B0720468A
:104700002946FCF763F80746019101222046294615
:10471000FCF7D6FD0022584BFCF765F83A46019BA2
:10472000FCF784F804460D463BE001260022524B7C
:1047300020462946FCF74AF80746009100224E4BD6
:1047400020462946FCF74FF83A46009BFCF76EF8E6
:1047500004460D4625E04949884219DA022600221E
:10476000474B20462946FCF7D5FA0022424BFCF77E
:104770002DF8074602910022414B20462946FCF7BE
:1047800032F83A46029BFCF751F804460D4608E021
:10479000032622462B4600203A49FCF747F80446F8
:1047A0000D4622462B4610461946FCF7B3FA07463B
:1047B0000B4602460191FCF7ADFA024602903248E0
:1047C0000B46039106217844FFF7B6FE3A46019B5B
:1047D000FCF7A0FA00902D48019105217844039B35
:1047E000029AFFF7A9FE039B029AFCF793FA02468E
:1047F0000B4601990098002E0BDAFBF7E7FF2246E3
:104800002B46FCF787FA22462B46FBF7F7FF09B049
:10481000F0BDFBF7DBFF22462B46FCF77BFA1C4A78
:10482000F6007A4493191A685B68FBF7DCFF2246AE
:104830002B46FBF7D8FF174A7A4493191A685B682E
:10484000FBF7DCFF069A002AE1DA0122D207514089
:1048500009B0F0BD000010440000F07F182D445452
:10486000FB21F93FFB21F9BF0000DC3F0000203EA7
:104870000000F33F0000E63F0000F03F00800340EF
:104880000000F83F0000F0BFF6060000B806000088
:10489000520600001C060000F0B513B4064601994C
:1048A000FCF796FC04460D4602460B46304601993D
:1048B000FBF799FF064601981B4B0F4600280CDAC0
:1048C0000022304600F07EF80CD90022174B30460B
:1048D000394600F0A9F81DD214E00022304600F05D
:1048E00071F808D20022124B20462946FBF77BFFC5
:1048F00004460D460EE000220C4B3046394600F0CF
:1049000093F807D800220A4B20462946FBF75EFFA2
:1049100004460D46019A69004908D20FD207204685
:10492000114303B0F0BD00000000E0BF0000E03F15
:104930000000F03F70B50546FCF7F2FC410004466C
:10494000FF204908C005411AC90F07D0690049086E
:10495000401AC00F02D10120FCF734FC204670BD84
:1049600070B501252D050C001C4310D4EC4206D473
:10497000AC420AD4994200D070BD904270BDE94269
:1049800017D4EB4215D4994270BD894270BDEC42F8
:1049900006D5AC42F9D58B4200D070BD824270BDC5
:1049A0006D004C00EC4204D25C00EC4201D28B4220
:1049B00070BD034C30B4FCF7FFFC30BC70BD00BFD1
:1049C0001900120470B501252D050C001C4310D4EC
:1049D000EC4206D4AC420AD4994200D070BD904259
:1049E00070BDE94217D4EB4215D4994270BD89429B
:1049F00070BDEC4206D5AC42F9D58B4200D070BDFB
:104A0000824270BD6D004C00EC4204D25C00EC426E
:104A100001D28B4270BD034C30B4FCF7CDFC30BCEE
:104A200070BD00BF1900160470B501252D051C00CE
:104A30000C4310D4EC4206D4AC420AD48B4200D0D2
:104A400070BD824270BDEB4217D4E94215D48B424F
:104A500070BD9B4270BDEC4206D5AC42F9D599427F
:104A600000D070BD904270BD6D005C00EC4204D27D
:104A70004C00EC4201D2994270BD0FB40CBC03BC97
:104A8000024C30B4FCF798FC30BC70BD1900160421
:104A900070B50125ED0704004C4020D4441A01D222
:104AA000001B0919C60D4B00F2B2FF2A29D01B0EBC
:104AB0002CD000020C0228432C43D31ADC400519E9
:104AC00010D2280A02D3401C6D0611D0761EF605BE
:104AD0008019FF2A00DA70BDC00DC00570BD6940A5
:104AE00000F0F8F801200543C541521C761CE8E7A8
:104AF00064089C40C90161408900E7D10124A043BA
:104B0000E4E71B0E440200D0034870BD002AFCD12C
:104B1000C00FC00770BD00BF0000C07F0123DB05D0
:104B200002000A430DD4DA4203D49A4207D48842E1
:104B30007047D84214D4D94212D488427047804278
:104B40007047DA4203D59A42F9D5814270475B003B
:104B50004200DA4204D24A00DA4201D2814270476E
:104B600010B5024AFCF778FC10BD00BF0900120422
:104B70000123DB0502000A430DD4DA4203D49A4232
:104B800007D488427047D84214D4D94212D48842FC
:104B9000704780427047DA4203D59A42F9D5814284
:104BA00070475B004200DA4204D24A00DA4201D286
:104BB0008142704710B5024AFCF74EFC10BD00BFA1
:104BC000090013040123DB0502000A430DD4DA4275
:104BD00003D49A4207D488427047D84214D4D942A9
:104BE00012D48842704780427047DA4203D59A4215
:104BF000F9D5814270475B004200DA4204D24A0094
:104C0000DA4201D28142704710B5024AFCF724FC17
:104C100010BD00BF0900160470B5420064414B008E
:104C20005C41120E39D01B0E38D0FF2A3CD0FF2B2E
:104C30003AD0D2187F3A40024902400A490A451840
:104C4000ED0106004E43000A090A48430104731AA5
:104C50004019190C4318990F04D05B08012149072A
:104C60005B1A521CD80904D3401CF50301D19D06E0
:104C700007D0FF2A08D2D50506D0E4072043401903
:104C800070BD0125A843F4E7002A01DCE00770BDF0
:104C90002402FF202043C00570BD1B0EFF2A03D055
:104CA000FF2B01D0E00770BDFF2636064500B54258
:104CB00006D84D00B54203D8D218FF2A00D0E7E746
:104CC000004870BD0000C07F70B50125ED070400ED
:104CD0004C4022D4441A02D26C40001B0919C60D64
:104CE0004B00F2B2FF2A4BD01B0E50D000020C0238
:104CF000A8432C43D31ADC40051B05D5AD0019D3BE
:104D00006D08761E521E37D0F605280A01D280198A
:104D100070BD70416D0603D070BD6940FFF7BEFEE7
:104D20009C4009026140490001D0401E70BD012431
:104D3000A04370BD6D081DD001202B0C01D12D04A6
:104D400010302B0E01D12D0208302B0F01D12D0177
:104D5000001DAB0F01D1AD00801CEB0F01D16D0028
:104D6000401C361A121A6D00680AF5054019012A0E
:104D700002DB70BD002070BDC036300AC00770BDB8
:104D80001B0E440201D1FF2B00D1024870BD002A46
:104D9000F0D070BD0000C07F80807F7E7D7C7B7AFC
:104DA0007978777676757473727171706F6E6E6DD7
:104DB0006C6C6B6A6A69686867666665646463637D
:104DC00062616160605F5F5E5E5D5D5C5C5B5B5A03
:104DD0005A59595858575756565555555454535370
:104DE00052525251515050504F4F4F4E4E4D4D4DCB
:104DF0004C4C4C4B4B4B4A4A4A4949494848484716
:104E00004747474646464545454444444443434353
:104E10004342424242414141818283848586878860
:104E2000898B8C8D8E8F919293959697999A9C9D54
:104E30009FA0A2A3A5A7A8AAACAEB0B2B3B5B7B9BC
:104E4000BCBEC0C2C5C7C9CCCED1D4D7D9DCDFE285
:104E5000E6E9ECF0F3F7FAFE4FBB610567ACDD3F26
:104E6000182D4454FB21E93F9BF681D20B73EF3F91
:104E7000182D4454FB21F93FE2652F227F2B7A3C09
:104E8000075C143326A6813CBDCBF07A8807703CC2
:104E9000075C143326A6913CC4EB98999999C9BF35
:104EA000711623FEC671BCBF6D9A74AFF2B0B3BF6A
:104EB0009AFDDE522DDEADBF2F6C6A2C44B4A2BF2A
:104EC0000D5555555555D53FFF8300922449C23F96
:104ED0006E204CC5CD45B73F513DD0A0660DB13FCA
:104EE000EB0D76244B7BA93F11DA22E33AAD903FDC
:104EF00000000000000000000000000000000000B2
:104F0000000000F800000000000000333000000046
:104F100000100C06100C060000000000000000004D
:104F200040C07840C0784000043F04043F040400BF
:104F3000007088FC08300000001820FF211E0000CF
:104F4000F008F000E018000000211C031E211E00E4
:104F500000F00888700000001E212324192721106A
:104F600010160E000000000000000000000000000D
:104F7000000000E0180402000000000718204000B4
:104F800000020418E00000000040201807000000A4
:104F9000404080F0804040000202010F0102020008
:104FA000000000F0000000000101011F01010100EC
:104FB000000000000000000080B070000000000051
:104FC00000000000000000000001010101010101DA
:104FD0000000000000000000003030000000000071
:104FE0000000000080601804006018060100000046
:104FF00000E010080810E000000F102020100F0043
:10500000001010F8000000000020203F20200000C9
:105010000070080808887000003028242221300021
:1050200000300888884830000018202020110E0029
:105030000000C02010F8000000070424243F2400D2
:1050400000F80888880808000019212020110E00A7
:1050500000E0108888180000000F112020110E00B9
:1050600000380808C83808000000003F00000000B1
:105070000070880808887000001C222121221C0072
:1050800000E010080810E0000000312222110F009B
:10509000000000C0C0000000000000303000000030
:1050A00000000080000000000000806000000000A0
:1050B00000008040201008000001020408102000B9
:1050C0004040404040404000040404040404040004
:1050D0000008102040800000002010080402010099
:1050E000007048080808F000000000303601000099
:1050F000C030C828E810E0000718272423140B004C
:105100000000C038E0000000203C230202273820C5
:1051100008F8888888700000203F202020110E00A9
:10512000C0300808080838000718202020100800A0
:1051300008F808080810E000203F202020100F0089
:1051400008F88888E8081000203F20202320180055
:1051500008F88888E8081000203F200003000000BD
:10516000C03008080838000007182020221E02005E
:1051700008F808000008F808203F210101213F201D
:10518000000808F8080800000020203F2020000048
:1051900000000808F8080800C08080807F00000038
:1051A00008F888C028180800203F20012638200071
:1051B00008F8080000000000203F202020203000D8
:1051C00008F8F800F8F80800203F003F003F2000F2
:1051D00008F830C00008F808203F200007183F00FA
:1051E000E01008080810E0000F10202020100F0029
:1051F00008F808080808F000203F2101010100001C
:10520000E01008080810E0000F18242438504F0060
:1052100008F8888888887000203F2000030C302020
:1052200000708808080838000038202121221C005E
:10523000180808F8080818000000203F20000000A7
:1052400008F808000008F808001F202020201F0090
:105250000878880000C83808000007380E010000F0
:10526000F80800F80008F800033C0700073C0300BA
:10527000081868808068180820302C03032C302020
:105280000838C800C83808000000203F200000008F
:1052900010080808C83808002038262120201800E7
:1052A000000000FE020202000000007F40404000BB
:1052B000000C30C000000000000000010638C000F3
:1052C00000020202FE000000004040407F0000009B
:1052D00000000402020204000000000000000000C0
:1052E00000000000000000008080808080808080BE
:1052F00000020204000000000000000000000000A6
:1053000000008080808000000019242222223F209B
:1053100008F8008080000000003F112020110E00DE
:105320000000008080800000000E1120202011006D
:10533000000000808088F800000E112020103F201F
:105340000000808080800000001F222222221300A3
:10535000008080F0888888180020203F20200000EE
:105360000000808080808000006B949494936000A3
:1053700008F8008080800000203F210000203F20AE
:1053800000809898000000000020203F20200000AE
:10539000000000809898000000C08080807F00009E
:1053A00008F8000080808000203F24022D3020007B
:1053B000000808F8000000000020203F2020000026
:1053C0008080808080808000203F20003F20003F40
:1053D0008080008080800000203F210000203F204E
:1053E0000000808080800000001F202020201F00FF
:1053F000808000808000000080FFA12020110E002E
:105400000000008080808000000E112020A0FF801E
:10541000808080008080800020203F2120000100CB
:105420000000808080808000003324242424190020
:10543000008080E0808000000000001F202000002D
:105440008080000000808000001F202020103F206E
:10545000808080000080808000010E3008060100FE
:1054600080800080008080800F300C030C300F00A3
:1054700000808000808080000020312E0E312000CE
:10548000808080000080808080818E7018060100FE
:1054900000808080808080000021302C222130001C
:1054A00000000000807C020200000000003F40403D
:1054B00000000000FF00000000000000FF000000EE
:1054C0000002027C800000000040403F000000001D
:1054D00000060101020204040000000000000000B8
:1054E0000800080001000000102700002001010052
:1054F0000807FF00220000000F000000010000006C
:10550000000000000000000008000000180000007B
:10551000003000004B643A004B693A004B703A008F
:10552000405500000000202068010000D215000056
:105530008855000068012020F80D000028010000B7
:105540002134F041056D0AD7A33C043409010163FD
:10555000A0400324F0414BE80304215A2030694065
:10556000011E4B0F2704000928EC51B83D8FC2756E
:105570003C6938211BC8426C19746978095E386926
:08558000D8293C09283800007D
:04000005000000C136
:00000001FF
